{
  "contractName": "Lottery",
  "abi": [
    {
      "inputs": [
        {
          "internalType": "uint256",
          "name": "_costPerLine",
          "type": "uint256"
        },
        {
          "internalType": "address",
          "name": "_vrfCoordinator",
          "type": "address"
        },
        {
          "internalType": "bytes32",
          "name": "_keyHash",
          "type": "bytes32"
        },
        {
          "internalType": "uint256",
          "name": "_linkFee",
          "type": "uint256"
        },
        {
          "internalType": "address",
          "name": "_linkAddress",
          "type": "address"
        },
        {
          "internalType": "address",
          "name": "_WETH9",
          "type": "address"
        }
      ],
      "stateMutability": "nonpayable",
      "type": "constructor"
    },
    {
      "inputs": [],
      "name": "correctNumbers",
      "outputs": [
        {
          "internalType": "uint8",
          "name": "",
          "type": "uint8"
        }
      ],
      "stateMutability": "view",
      "type": "function"
    },
    {
      "inputs": [],
      "name": "costPerLine",
      "outputs": [
        {
          "internalType": "uint256",
          "name": "",
          "type": "uint256"
        }
      ],
      "stateMutability": "view",
      "type": "function"
    },
    {
      "inputs": [],
      "name": "dividedPool",
      "outputs": [
        {
          "internalType": "uint256",
          "name": "",
          "type": "uint256"
        }
      ],
      "stateMutability": "view",
      "type": "function"
    },
    {
      "inputs": [],
      "name": "drawNumber",
      "outputs": [
        {
          "internalType": "uint256",
          "name": "",
          "type": "uint256"
        }
      ],
      "stateMutability": "view",
      "type": "function"
    },
    {
      "inputs": [],
      "name": "ethAmount",
      "outputs": [
        {
          "internalType": "uint256",
          "name": "",
          "type": "uint256"
        }
      ],
      "stateMutability": "view",
      "type": "function"
    },
    {
      "inputs": [
        {
          "internalType": "uint256",
          "name": "",
          "type": "uint256"
        }
      ],
      "name": "fiveCorrect",
      "outputs": [
        {
          "internalType": "address payable",
          "name": "",
          "type": "address"
        }
      ],
      "stateMutability": "view",
      "type": "function"
    },
    {
      "inputs": [],
      "name": "fivePool",
      "outputs": [
        {
          "internalType": "uint256",
          "name": "",
          "type": "uint256"
        }
      ],
      "stateMutability": "view",
      "type": "function"
    },
    {
      "inputs": [
        {
          "internalType": "uint256",
          "name": "",
          "type": "uint256"
        }
      ],
      "name": "fourCorrect",
      "outputs": [
        {
          "internalType": "address payable",
          "name": "",
          "type": "address"
        }
      ],
      "stateMutability": "view",
      "type": "function"
    },
    {
      "inputs": [],
      "name": "fourPool",
      "outputs": [
        {
          "internalType": "uint256",
          "name": "",
          "type": "uint256"
        }
      ],
      "stateMutability": "view",
      "type": "function"
    },
    {
      "inputs": [
        {
          "internalType": "uint256",
          "name": "",
          "type": "uint256"
        },
        {
          "internalType": "address",
          "name": "",
          "type": "address"
        }
      ],
      "name": "isAddressEntered",
      "outputs": [
        {
          "internalType": "bool",
          "name": "",
          "type": "bool"
        }
      ],
      "stateMutability": "view",
      "type": "function"
    },
    {
      "inputs": [
        {
          "internalType": "uint256",
          "name": "",
          "type": "uint256"
        },
        {
          "internalType": "address",
          "name": "",
          "type": "address"
        },
        {
          "internalType": "uint256",
          "name": "",
          "type": "uint256"
        }
      ],
      "name": "pickedNumbers",
      "outputs": [
        {
          "internalType": "uint8",
          "name": "",
          "type": "uint8"
        }
      ],
      "stateMutability": "view",
      "type": "function"
    },
    {
      "inputs": [],
      "name": "poolOwner",
      "outputs": [
        {
          "internalType": "address payable",
          "name": "",
          "type": "address"
        }
      ],
      "stateMutability": "view",
      "type": "function"
    },
    {
      "inputs": [
        {
          "internalType": "bytes32",
          "name": "requestId",
          "type": "bytes32"
        },
        {
          "internalType": "uint256",
          "name": "randomness",
          "type": "uint256"
        }
      ],
      "name": "rawFulfillRandomness",
      "outputs": [],
      "stateMutability": "nonpayable",
      "type": "function"
    },
    {
      "inputs": [
        {
          "internalType": "uint256",
          "name": "",
          "type": "uint256"
        }
      ],
      "name": "sevenCorrect",
      "outputs": [
        {
          "internalType": "address payable",
          "name": "",
          "type": "address"
        }
      ],
      "stateMutability": "view",
      "type": "function"
    },
    {
      "inputs": [],
      "name": "sevenPool",
      "outputs": [
        {
          "internalType": "uint256",
          "name": "",
          "type": "uint256"
        }
      ],
      "stateMutability": "view",
      "type": "function"
    },
    {
      "inputs": [
        {
          "internalType": "uint256",
          "name": "",
          "type": "uint256"
        }
      ],
      "name": "sixCorrect",
      "outputs": [
        {
          "internalType": "address payable",
          "name": "",
          "type": "address"
        }
      ],
      "stateMutability": "view",
      "type": "function"
    },
    {
      "inputs": [],
      "name": "sixPool",
      "outputs": [
        {
          "internalType": "uint256",
          "name": "",
          "type": "uint256"
        }
      ],
      "stateMutability": "view",
      "type": "function"
    },
    {
      "inputs": [
        {
          "internalType": "uint256",
          "name": "",
          "type": "uint256"
        }
      ],
      "name": "threeCorrect",
      "outputs": [
        {
          "internalType": "address payable",
          "name": "",
          "type": "address"
        }
      ],
      "stateMutability": "view",
      "type": "function"
    },
    {
      "inputs": [],
      "name": "threePool",
      "outputs": [
        {
          "internalType": "uint256",
          "name": "",
          "type": "uint256"
        }
      ],
      "stateMutability": "view",
      "type": "function"
    },
    {
      "inputs": [],
      "name": "totalPrizePool",
      "outputs": [
        {
          "internalType": "uint256",
          "name": "",
          "type": "uint256"
        }
      ],
      "stateMutability": "view",
      "type": "function"
    },
    {
      "inputs": [
        {
          "internalType": "uint256",
          "name": "",
          "type": "uint256"
        },
        {
          "internalType": "uint256",
          "name": "",
          "type": "uint256"
        }
      ],
      "name": "winningNumbers",
      "outputs": [
        {
          "internalType": "uint256",
          "name": "",
          "type": "uint256"
        }
      ],
      "stateMutability": "view",
      "type": "function"
    },
    {
      "inputs": [],
      "name": "getEstimatedETHforLINK",
      "outputs": [
        {
          "internalType": "uint256",
          "name": "",
          "type": "uint256"
        }
      ],
      "stateMutability": "payable",
      "type": "function"
    },
    {
      "inputs": [],
      "name": "convertEthToExactLINK",
      "outputs": [],
      "stateMutability": "payable",
      "type": "function"
    },
    {
      "inputs": [
        {
          "internalType": "uint8",
          "name": "_0",
          "type": "uint8"
        },
        {
          "internalType": "uint8",
          "name": "_1",
          "type": "uint8"
        },
        {
          "internalType": "uint8",
          "name": "_2",
          "type": "uint8"
        },
        {
          "internalType": "uint8",
          "name": "_3",
          "type": "uint8"
        },
        {
          "internalType": "uint8",
          "name": "_4",
          "type": "uint8"
        },
        {
          "internalType": "uint8",
          "name": "_5",
          "type": "uint8"
        },
        {
          "internalType": "uint8",
          "name": "_6",
          "type": "uint8"
        }
      ],
      "name": "chooseNumbers",
      "outputs": [],
      "stateMutability": "payable",
      "type": "function"
    },
    {
      "inputs": [],
      "name": "getRandomNumber",
      "outputs": [
        {
          "internalType": "bytes32",
          "name": "requestId",
          "type": "bytes32"
        }
      ],
      "stateMutability": "nonpayable",
      "type": "function"
    },
    {
      "inputs": [],
      "name": "expand",
      "outputs": [],
      "stateMutability": "nonpayable",
      "type": "function"
    },
    {
      "inputs": [],
      "name": "checkNumbers",
      "outputs": [],
      "stateMutability": "nonpayable",
      "type": "function"
    },
    {
      "inputs": [],
      "name": "dividePool",
      "outputs": [],
      "stateMutability": "nonpayable",
      "type": "function"
    },
    {
      "inputs": [],
      "name": "sevenClaimPrize",
      "outputs": [],
      "stateMutability": "payable",
      "type": "function"
    },
    {
      "inputs": [],
      "name": "sixClaimPrize",
      "outputs": [],
      "stateMutability": "payable",
      "type": "function"
    },
    {
      "inputs": [],
      "name": "fiveClaimPrize",
      "outputs": [],
      "stateMutability": "payable",
      "type": "function"
    },
    {
      "inputs": [],
      "name": "fourClaimPrize",
      "outputs": [],
      "stateMutability": "payable",
      "type": "function"
    },
    {
      "inputs": [],
      "name": "threeClaimPrize",
      "outputs": [],
      "stateMutability": "payable",
      "type": "function"
    },
    {
      "inputs": [],
      "name": "weeklyReset",
      "outputs": [],
      "stateMutability": "nonpayable",
      "type": "function"
    }
  ],
  "bytecode": "0x60c0604052610bb8600260146101000a81548162ffffff021916908362ffffff1602179055503480156200003257600080fd5b506040516200384738038062003847833981810160405281019062000058919062000290565b84828173ffffffffffffffffffffffffffffffffffffffff1660a08173ffffffffffffffffffffffffffffffffffffffff16815250508073ffffffffffffffffffffffffffffffffffffffff1660808173ffffffffffffffffffffffffffffffffffffffff1681525050505033600d60006101000a81548173ffffffffffffffffffffffffffffffffffffffff021916908373ffffffffffffffffffffffffffffffffffffffff160217905550856007819055506001600c81905550836004819055508260058190555081600260006101000a81548173ffffffffffffffffffffffffffffffffffffffff021916908373ffffffffffffffffffffffffffffffffffffffff16021790555080600160006101000a81548173ffffffffffffffffffffffffffffffffffffffff021916908373ffffffffffffffffffffffffffffffffffffffff1602179055505050505050506200032c565b600080fd5b6000819050919050565b620001ca81620001b5565b8114620001d657600080fd5b50565b600081519050620001ea81620001bf565b92915050565b600073ffffffffffffffffffffffffffffffffffffffff82169050919050565b60006200021d82620001f0565b9050919050565b6200022f8162000210565b81146200023b57600080fd5b50565b6000815190506200024f8162000224565b92915050565b6000819050919050565b6200026a8162000255565b81146200027657600080fd5b50565b6000815190506200028a816200025f565b92915050565b60008060008060008060c08789031215620002b057620002af620001b0565b5b6000620002c089828a01620001d9565b9650506020620002d389828a016200023e565b9550506040620002e689828a0162000279565b9450506060620002f989828a01620001d9565b93505060806200030c89828a016200023e565b92505060a06200031f89828a016200023e565b9150509295509295509295565b60805160a0516134e76200036060003960008181611c20015261261f01526000818161230901526125e301526134e76000f3fe6080604052600436106101f95760003560e01c80638b3d25091161010d578063a9cdcc91116100a0578063d80ffb201161006f578063d80ffb2014610648578063dbdff2c114610673578063e9eb03bb1461069e578063ea0ee5a6146106c9578063f98d487f146106d3576101f9565b8063a9cdcc911461058a578063b1c3c164146105b5578063c98166c0146105f2578063cf0b22701461061d576101f9565b80639d1278a8116100dc5780639d1278a814610527578063a149303c14610531578063a3f64e631461055c578063a90ef7b914610573576101f9565b80638b3d25091461046657806394985ddd146104a357806394ff458f146104cc5780639a4ac3b014610509576101f9565b80635305bd8e116101905780636eb5ec851161015f5780636eb5ec851461035957806377bd10f91461038457806385ea3297146103c157806386451e9b146103fe578063874f91281461043b576101f9565b80635305bd8e146102cb57806356f28166146102f65780636139be54146103125780636e85b8df1461034f576101f9565b8063357efa7c116101cc578063357efa7c14610254578063398ab9a71461025e5780633d4fcef7146102895780634f460894146102b4576101f9565b8063034485a6146101fe5780630dff5c79146102085780631cf28a65146102125780632585229214610229575b600080fd5b610206610710565b005b6102106108c1565b005b34801561021e57600080fd5b50610227610a72565b005b34801561023557600080fd5b5061023e610c96565b60405161024b91906127f8565b60405180910390f35b61025c610ca9565b005b34801561026a57600080fd5b50610273610e5a565b604051610280919061282c565b60405180910390f35b34801561029557600080fd5b5061029e610e60565b6040516102ab919061282c565b60405180910390f35b3480156102c057600080fd5b506102c9610e66565b005b3480156102d757600080fd5b506102e06112b1565b6040516102ed919061282c565b60405180910390f35b610310600480360381019061030b9190612878565b6112b7565b005b34801561031e57600080fd5b5061033960048036038101906103349190612946565b6118af565b60405161034691906129b4565b60405180910390f35b6103576118ee565b005b34801561036557600080fd5b5061036e611b1f565b60405161037b919061282c565b60405180910390f35b34801561039057600080fd5b506103ab60048036038101906103a69190612a0d565b611b25565b6040516103b891906127f8565b60405180910390f35b3480156103cd57600080fd5b506103e860048036038101906103e39190612946565b611b6b565b6040516103f591906129b4565b60405180910390f35b34801561040a57600080fd5b5061042560048036038101906104209190612946565b611baa565b60405161043291906129b4565b60405180910390f35b34801561044757600080fd5b50610450611be9565b60405161045d919061282c565b60405180910390f35b34801561047257600080fd5b5061048d60048036038101906104889190612a60565b611bef565b60405161049a9190612abb565b60405180910390f35b3480156104af57600080fd5b506104ca60048036038101906104c59190612b0c565b611c1e565b005b3480156104d857600080fd5b506104f360048036038101906104ee9190612946565b611cba565b60405161050091906129b4565b60405180910390f35b610511611cf9565b60405161051e919061282c565b60405180910390f35b61052f611e4f565b005b34801561053d57600080fd5b50610546612000565b604051610553919061282c565b60405180910390f35b34801561056857600080fd5b50610571612006565b005b34801561057f57600080fd5b5061058861213a565b005b34801561059657600080fd5b5061059f612231565b6040516105ac919061282c565b60405180910390f35b3480156105c157600080fd5b506105dc60048036038101906105d79190612946565b612237565b6040516105e991906129b4565b60405180910390f35b3480156105fe57600080fd5b50610607612276565b604051610614919061282c565b60405180910390f35b34801561062957600080fd5b5061063261227c565b60405161063f91906129b4565b60405180910390f35b34801561065457600080fd5b5061065d6122a2565b60405161066a919061282c565b60405180910390f35b34801561067f57600080fd5b506106886122a8565b6040516106959190612b5b565b60405180910390f35b3480156106aa57600080fd5b506106b36123f5565b6040516106c0919061282c565b60405180910390f35b6106d16123fb565b005b3480156106df57600080fd5b506106fa60048036038101906106f59190612b76565b6125ac565b604051610707919061282c565b60405180910390f35b600d60009054906101000a900473ffffffffffffffffffffffffffffffffffffffff1673ffffffffffffffffffffffffffffffffffffffff163373ffffffffffffffffffffffffffffffffffffffff161461076a57600080fd5b60006011805490501161077c57600080fd5b601654341461078a57600080fd5b60005b6011805490508110156108b65760006011805490506016546107af9190612c14565b90506000601183815481106107c7576107c6612c45565b5b9060005260206000200160009054906101000a900473ffffffffffffffffffffffffffffffffffffffff16905060008173ffffffffffffffffffffffffffffffffffffffff168360405161081a90612ca5565b60006040518083038185875af1925050503d8060008114610857576040519150601f19603f3d011682016040523d82523d6000602084013e61085c565b606091505b50509050806108a0576040517f08c379a000000000000000000000000000000000000000000000000000000000815260040161089790612d17565b60405180910390fd5b50505080806108ae90612d37565b91505061078d565b506000601681905550565b600d60009054906101000a900473ffffffffffffffffffffffffffffffffffffffff1673ffffffffffffffffffffffffffffffffffffffff163373ffffffffffffffffffffffffffffffffffffffff161461091b57600080fd5b60006014805490501161092d57600080fd5b601954341461093b57600080fd5b60005b601480549050811015610a675760006014805490506019546109609190612c14565b905060006014838154811061097857610977612c45565b5b9060005260206000200160009054906101000a900473ffffffffffffffffffffffffffffffffffffffff16905060008173ffffffffffffffffffffffffffffffffffffffff16836040516109cb90612ca5565b60006040518083038185875af1925050503d8060008114610a08576040519150601f19603f3d011682016040523d82523d6000602084013e610a0d565b606091505b5050905080610a51576040517f08c379a0000000000000000000000000000000000000000000000000000000008152600401610a4890612d17565b60405180910390fd5b5050508080610a5f90612d37565b91505061093e565b506000601981905550565b600d60009054906101000a900473ffffffffffffffffffffffffffffffffffffffff1673ffffffffffffffffffffffffffffffffffffffff163373ffffffffffffffffffffffffffffffffffffffff1614610acc57600080fd5b60035460096000828254610ae09190612d80565b9250508190555060005b6007811015610c93576001603260065483604051602001610b0c929190612db4565b6040516020818303038152906040528051906020012060001c610b2f9190612ddd565b610b399190612e0e565b60086000600c5481526020019081526020016000208260078110610b6057610b5f612c45565b5b018190555060005b60078160ff161015610c7f5760086000600c5481526020019081526020016000208160ff1660078110610b9e57610b9d612c45565b5b015460086000600c5481526020019081526020016000208360078110610bc757610bc6612c45565b5b01541415610c6c57600160326006548460086000600c5481526020019081526020016000208660078110610bfe57610bfd612c45565b5b0154604051602001610c1293929190612e64565b6040516020818303038152906040528051906020012060001c610c359190612ddd565b610c3f9190612e0e565b60086000600c5481526020019081526020016000208360078110610c6657610c65612c45565b5b01819055505b8080610c7790612e9b565b915050610b68565b508080610c8b90612d37565b915050610aea565b50565b600a60009054906101000a900460ff1681565b600d60009054906101000a900473ffffffffffffffffffffffffffffffffffffffff1673ffffffffffffffffffffffffffffffffffffffff163373ffffffffffffffffffffffffffffffffffffffff1614610d0357600080fd5b600060138054905011610d1557600080fd5b6018543414610d2357600080fd5b60005b601380549050811015610e4f576000601380549050601854610d489190612c14565b9050600060138381548110610d6057610d5f612c45565b5b9060005260206000200160009054906101000a900473ffffffffffffffffffffffffffffffffffffffff16905060008173ffffffffffffffffffffffffffffffffffffffff1683604051610db390612ca5565b60006040518083038185875af1925050503d8060008114610df0576040519150601f19603f3d011682016040523d82523d6000602084013e610df5565b606091505b5050905080610e39576040517f08c379a0000000000000000000000000000000000000000000000000000000008152600401610e3090612d17565b60405180910390fd5b5050508080610e4790612d37565b915050610d26565b506000601881905550565b60095481565b60075481565b600e6000600c54815260200190815260200160002060003373ffffffffffffffffffffffffffffffffffffffff1673ffffffffffffffffffffffffffffffffffffffff16815260200190815260200160002060009054906101000a900460ff16610ecf57600080fd5b60005b60078160ff1610156110035760005b60078160ff161015610fef5760086000600c5481526020019081526020016000208160ff1660078110610f1757610f16612c45565b5b0154600f6000600c54815260200190815260200160002060003373ffffffffffffffffffffffffffffffffffffffff1673ffffffffffffffffffffffffffffffffffffffff1681526020019081526020016000208360ff1660078110610f8057610f7f612c45565b5b602091828204019190069054906101000a900460ff1660ff161415610fdc57600a600081819054906101000a900460ff1680929190610fbe90612e9b565b91906101000a81548160ff021916908360ff16021790555050610fef565b8080610fe790612e9b565b915050610ee1565b508080610ffb90612e9b565b915050610ed2565b506007600a60009054906101000a900460ff1660ff161415611087576010339080600181540180825580915050600190039060005260206000200160009091909190916101000a81548173ffffffffffffffffffffffffffffffffffffffff021916908373ffffffffffffffffffffffffffffffffffffffff160217905550611293565b6006600a60009054906101000a900460ff1660ff16141561110a576011339080600181540180825580915050600190039060005260206000200160009091909190916101000a81548173ffffffffffffffffffffffffffffffffffffffff021916908373ffffffffffffffffffffffffffffffffffffffff160217905550611292565b6005600a60009054906101000a900460ff1660ff16141561118d576012339080600181540180825580915050600190039060005260206000200160009091909190916101000a81548173ffffffffffffffffffffffffffffffffffffffff021916908373ffffffffffffffffffffffffffffffffffffffff160217905550611291565b6004600a60009054906101000a900460ff1660ff161415611210576013339080600181540180825580915050600190039060005260206000200160009091909190916101000a81548173ffffffffffffffffffffffffffffffffffffffff021916908373ffffffffffffffffffffffffffffffffffffffff160217905550611290565b6003600a60009054906101000a900460ff1660ff16141561128f576014339080600181540180825580915050600190039060005260206000200160009091909190916101000a81548173ffffffffffffffffffffffffffffffffffffffff021916908373ffffffffffffffffffffffffffffffffffffffff1602179055505b5b5b5b5b6000600a60006101000a81548160ff021916908360ff160217905550565b60195481565b60338760ff16106112c757600080fd5b60338660ff16106112d757600080fd5b60338560ff16106112e757600080fd5b60338460ff16106112f757600080fd5b60338360ff161061130757600080fd5b60338260ff161061131757600080fd5b60338160ff161061132757600080fd5b600754341461133557600080fd5b60001515600e6000600c54815260200190815260200160002060003373ffffffffffffffffffffffffffffffffffffffff1673ffffffffffffffffffffffffffffffffffffffff16815260200190815260200160002060009054906101000a900460ff161515146113a557600080fd5b6001600e6000600c54815260200190815260200160002060003373ffffffffffffffffffffffffffffffffffffffff1673ffffffffffffffffffffffffffffffffffffffff16815260200190815260200160002060006101000a81548160ff0219169083151502179055506000600d60009054906101000a900473ffffffffffffffffffffffffffffffffffffffff1673ffffffffffffffffffffffffffffffffffffffff1660075460405161145a90612ca5565b60006040518083038185875af1925050503d8060008114611497576040519150601f19603f3d011682016040523d82523d6000602084013e61149c565b606091505b50509050806114e0576040517f08c379a00000000000000000000000000000000000000000000000000000000081526004016114d790612d17565b60405180910390fd5b600754600960008282546114f49190612e0e565b9250508190555087600f6000600c54815260200190815260200160002060003373ffffffffffffffffffffffffffffffffffffffff1673ffffffffffffffffffffffffffffffffffffffff16815260200190815260200160002060006007811061156157611560612c45565b5b602091828204019190066101000a81548160ff021916908360ff16021790555086600f6000600c54815260200190815260200160002060003373ffffffffffffffffffffffffffffffffffffffff1673ffffffffffffffffffffffffffffffffffffffff1681526020019081526020016000206001600781106115e7576115e6612c45565b5b602091828204019190066101000a81548160ff021916908360ff16021790555085600f6000600c54815260200190815260200160002060003373ffffffffffffffffffffffffffffffffffffffff1673ffffffffffffffffffffffffffffffffffffffff16815260200190815260200160002060026007811061166d5761166c612c45565b5b602091828204019190066101000a81548160ff021916908360ff16021790555084600f6000600c54815260200190815260200160002060003373ffffffffffffffffffffffffffffffffffffffff1673ffffffffffffffffffffffffffffffffffffffff1681526020019081526020016000206003600781106116f3576116f2612c45565b5b602091828204019190066101000a81548160ff021916908360ff16021790555083600f6000600c54815260200190815260200160002060003373ffffffffffffffffffffffffffffffffffffffff1673ffffffffffffffffffffffffffffffffffffffff16815260200190815260200160002060046007811061177957611778612c45565b5b602091828204019190066101000a81548160ff021916908360ff16021790555082600f6000600c54815260200190815260200160002060003373ffffffffffffffffffffffffffffffffffffffff1673ffffffffffffffffffffffffffffffffffffffff1681526020019081526020016000206005600781106117ff576117fe612c45565b5b602091828204019190066101000a81548160ff021916908360ff16021790555081600f6000600c54815260200190815260200160002060003373ffffffffffffffffffffffffffffffffffffffff1673ffffffffffffffffffffffffffffffffffffffff16815260200190815260200160002060066007811061188557611884612c45565b5b602091828204019190066101000a81548160ff021916908360ff1602179055505050505050505050565b601181815481106118bf57600080fd5b906000526020600020016000915054906101000a900473ffffffffffffffffffffffffffffffffffffffff1681565b600d60009054906101000a900473ffffffffffffffffffffffffffffffffffffffff1673ffffffffffffffffffffffffffffffffffffffff163373ffffffffffffffffffffffffffffffffffffffff161461194857600080fd5b600354341161198c576040517f08c379a000000000000000000000000000000000000000000000000000000000815260040161198390612f37565b60405180910390fd5b6000604051806101000160405280600160009054906101000a900473ffffffffffffffffffffffffffffffffffffffff1673ffffffffffffffffffffffffffffffffffffffff168152602001600260009054906101000a900473ffffffffffffffffffffffffffffffffffffffff1673ffffffffffffffffffffffffffffffffffffffff168152602001600260149054906101000a900462ffffff1662ffffff1681526020013073ffffffffffffffffffffffffffffffffffffffff168152602001600f42611a5b9190612e0e565b815260200134815260200160008152602001600073ffffffffffffffffffffffffffffffffffffffff16815250905073e592427a0aece92de3edee1f18e0157c0586156473ffffffffffffffffffffffffffffffffffffffff1663414bf38934836040518363ffffffff1660e01b8152600401611ad89190613044565b60206040518083038185885af1158015611af6573d6000803e3d6000fd5b50505050506040513d601f19601f82011682018060405250810190611b1b9190613075565b5050565b600b5481565b600f6020528260005260406000206020528160005260406000208160078110611b4d57600080fd5b6020918282040191900692509250509054906101000a900460ff1681565b60138181548110611b7b57600080fd5b906000526020600020016000915054906101000a900473ffffffffffffffffffffffffffffffffffffffff1681565b60148181548110611bba57600080fd5b906000526020600020016000915054906101000a900473ffffffffffffffffffffffffffffffffffffffff1681565b60155481565b600e6020528160005260406000206020528060005260406000206000915091509054906101000a900460ff1681565b7f000000000000000000000000000000000000000000000000000000000000000073ffffffffffffffffffffffffffffffffffffffff163373ffffffffffffffffffffffffffffffffffffffff1614611cac576040517f08c379a0000000000000000000000000000000000000000000000000000000008152600401611ca3906130ee565b60405180910390fd5b611cb682826125d4565b5050565b60108181548110611cca57600080fd5b906000526020600020016000915054906101000a900473ffffffffffffffffffffffffffffffffffffffff1681565b6000600d60009054906101000a900473ffffffffffffffffffffffffffffffffffffffff1673ffffffffffffffffffffffffffffffffffffffff163373ffffffffffffffffffffffffffffffffffffffff1614611d5557600080fd5b73b27308f9f90d607463bb33ea1bebb41c27ce5ab673ffffffffffffffffffffffffffffffffffffffff166330d07f21600160009054906101000a900473ffffffffffffffffffffffffffffffffffffffff16600260009054906101000a900473ffffffffffffffffffffffffffffffffffffffff16600260149054906101000a900462ffffff1660055460006040518663ffffffff1660e01b8152600401611e02959493929190613171565b6020604051808303816000875af1158015611e21573d6000803e3d6000fd5b505050506040513d601f19601f82011682018060405250810190611e459190613075565b6003819055905090565b600d60009054906101000a900473ffffffffffffffffffffffffffffffffffffffff1673ffffffffffffffffffffffffffffffffffffffff163373ffffffffffffffffffffffffffffffffffffffff1614611ea957600080fd5b600060128054905011611ebb57600080fd5b6017543414611ec957600080fd5b60005b601280549050811015611ff5576000601280549050601754611eee9190612c14565b9050600060128381548110611f0657611f05612c45565b5b9060005260206000200160009054906101000a900473ffffffffffffffffffffffffffffffffffffffff16905060008173ffffffffffffffffffffffffffffffffffffffff1683604051611f5990612ca5565b60006040518083038185875af1925050503d8060008114611f96576040519150601f19603f3d011682016040523d82523d6000602084013e611f9b565b606091505b5050905080611fdf576040517f08c379a0000000000000000000000000000000000000000000000000000000008152600401611fd690612d17565b60405180910390fd5b5050508080611fed90612d37565b915050611ecc565b506000601781905550565b60175481565b600d60009054906101000a900473ffffffffffffffffffffffffffffffffffffffff1673ffffffffffffffffffffffffffffffffffffffff163373ffffffffffffffffffffffffffffffffffffffff161461206057600080fd5b606460095461206f9190612c14565b600b819055506055600b5461208491906131c4565b601560008282546120959190612e0e565b925050819055506004600b546120ab91906131c4565b601660008282546120bc9190612e0e565b925050819055506005600b546120d291906131c4565b601760008282546120e39190612e0e565b925050819055506003600b546120f991906131c4565b6018600082825461210a9190612e0e565b925050819055506002600b5461212091906131c4565b601960008282546121319190612e0e565b92505081905550565b600d60009054906101000a900473ffffffffffffffffffffffffffffffffffffffff1673ffffffffffffffffffffffffffffffffffffffff163373ffffffffffffffffffffffffffffffffffffffff161461219457600080fd5b6015546016546017546018546019546121ad9190612e0e565b6121b79190612e0e565b6121c19190612e0e565b6121cb9190612e0e565b600981905550600c60008154809291906121e490612d37565b9190505550601060006121f7919061279e565b60116000612205919061279e565b60126000612213919061279e565b60136000612221919061279e565b6014600061222f919061279e565b565b60185481565b6012818154811061224757600080fd5b906000526020600020016000915054906101000a900473ffffffffffffffffffffffffffffffffffffffff1681565b60035481565b600d60009054906101000a900473ffffffffffffffffffffffffffffffffffffffff1681565b600c5481565b6000600d60009054906101000a900473ffffffffffffffffffffffffffffffffffffffff1673ffffffffffffffffffffffffffffffffffffffff163373ffffffffffffffffffffffffffffffffffffffff161461230457600080fd5b6005547f000000000000000000000000000000000000000000000000000000000000000073ffffffffffffffffffffffffffffffffffffffff166370a08231306040518263ffffffff1660e01b8152600401612360919061321e565b602060405180830381865afa15801561237d573d6000803e3d6000fd5b505050506040513d601f19601f820116820180604052508101906123a19190613075565b10156123e2576040517f08c379a00000000000000000000000000000000000000000000000000000000081526004016123d990613285565b60405180910390fd5b6123f06004546005546125df565b905090565b60165481565b600d60009054906101000a900473ffffffffffffffffffffffffffffffffffffffff1673ffffffffffffffffffffffffffffffffffffffff163373ffffffffffffffffffffffffffffffffffffffff161461245557600080fd5b60006010805490501161246757600080fd5b601554341461247557600080fd5b60005b6010805490508110156125a157600060108054905060155461249a9190612c14565b90506000601083815481106124b2576124b1612c45565b5b9060005260206000200160009054906101000a900473ffffffffffffffffffffffffffffffffffffffff16905060008173ffffffffffffffffffffffffffffffffffffffff168360405161250590612ca5565b60006040518083038185875af1925050503d8060008114612542576040519150601f19603f3d011682016040523d82523d6000602084013e612547565b606091505b505090508061258b576040517f08c379a000000000000000000000000000000000000000000000000000000000815260040161258290612d17565b60405180910390fd5b505050808061259990612d37565b915050612478565b506000601581905550565b600860205281600052604060002081600781106125c857600080fd5b01600091509150505481565b806006819055505050565b60007f000000000000000000000000000000000000000000000000000000000000000073ffffffffffffffffffffffffffffffffffffffff16634000aea07f0000000000000000000000000000000000000000000000000000000000000000848660006040516020016126539291906132a5565b6040516020818303038152906040526040518463ffffffff1660e01b815260040161268093929190613367565b6020604051808303816000875af115801561269f573d6000803e3d6000fd5b505050506040513d601f19601f820116820180604052508101906126c391906133d1565b5060006126e5846000306000808981526020019081526020016000205461272f565b90506001600080868152602001908152602001600020546127069190612e0e565b60008086815260200190815260200160002081905550612726848261276b565b91505092915050565b60008484848460405160200161274894939291906133fe565b6040516020818303038152906040528051906020012060001c9050949350505050565b60008282604051602001612780929190613485565b60405160208183030381529060405280519060200120905092915050565b50805460008255906000526020600020908101906127bc91906127bf565b50565b5b808211156127d85760008160009055506001016127c0565b5090565b600060ff82169050919050565b6127f2816127dc565b82525050565b600060208201905061280d60008301846127e9565b92915050565b6000819050919050565b61282681612813565b82525050565b6000602082019050612841600083018461281d565b92915050565b600080fd5b612855816127dc565b811461286057600080fd5b50565b6000813590506128728161284c565b92915050565b600080600080600080600060e0888a03121561289757612896612847565b5b60006128a58a828b01612863565b97505060206128b68a828b01612863565b96505060406128c78a828b01612863565b95505060606128d88a828b01612863565b94505060806128e98a828b01612863565b93505060a06128fa8a828b01612863565b92505060c061290b8a828b01612863565b91505092959891949750929550565b61292381612813565b811461292e57600080fd5b50565b6000813590506129408161291a565b92915050565b60006020828403121561295c5761295b612847565b5b600061296a84828501612931565b91505092915050565b600073ffffffffffffffffffffffffffffffffffffffff82169050919050565b600061299e82612973565b9050919050565b6129ae81612993565b82525050565b60006020820190506129c960008301846129a5565b92915050565b60006129da82612973565b9050919050565b6129ea816129cf565b81146129f557600080fd5b50565b600081359050612a07816129e1565b92915050565b600080600060608486031215612a2657612a25612847565b5b6000612a3486828701612931565b9350506020612a45868287016129f8565b9250506040612a5686828701612931565b9150509250925092565b60008060408385031215612a7757612a76612847565b5b6000612a8585828601612931565b9250506020612a96858286016129f8565b9150509250929050565b60008115159050919050565b612ab581612aa0565b82525050565b6000602082019050612ad06000830184612aac565b92915050565b6000819050919050565b612ae981612ad6565b8114612af457600080fd5b50565b600081359050612b0681612ae0565b92915050565b60008060408385031215612b2357612b22612847565b5b6000612b3185828601612af7565b9250506020612b4285828601612931565b9150509250929050565b612b5581612ad6565b82525050565b6000602082019050612b706000830184612b4c565b92915050565b60008060408385031215612b8d57612b8c612847565b5b6000612b9b85828601612931565b9250506020612bac85828601612931565b9150509250929050565b7f4e487b7100000000000000000000000000000000000000000000000000000000600052601260045260246000fd5b7f4e487b7100000000000000000000000000000000000000000000000000000000600052601160045260246000fd5b6000612c1f82612813565b9150612c2a83612813565b925082612c3a57612c39612bb6565b5b828204905092915050565b7f4e487b7100000000000000000000000000000000000000000000000000000000600052603260045260246000fd5b600081905092915050565b50565b6000612c8f600083612c74565b9150612c9a82612c7f565b600082019050919050565b6000612cb082612c82565b9150819050919050565b600082825260208201905092915050565b7f5472616e73616374696f6e206661696c65642e00000000000000000000000000600082015250565b6000612d01601383612cba565b9150612d0c82612ccb565b602082019050919050565b60006020820190508181036000830152612d3081612cf4565b9050919050565b6000612d4282612813565b91507fffffffffffffffffffffffffffffffffffffffffffffffffffffffffffffffff821415612d7557612d74612be5565b5b600182019050919050565b6000612d8b82612813565b9150612d9683612813565b925082821015612da957612da8612be5565b5b828203905092915050565b6000604082019050612dc9600083018561281d565b612dd6602083018461281d565b9392505050565b6000612de882612813565b9150612df383612813565b925082612e0357612e02612bb6565b5b828206905092915050565b6000612e1982612813565b9150612e2483612813565b9250827fffffffffffffffffffffffffffffffffffffffffffffffffffffffffffffffff03821115612e5957612e58612be5565b5b828201905092915050565b6000606082019050612e79600083018661281d565b612e86602083018561281d565b612e93604083018461281d565b949350505050565b6000612ea6826127dc565b915060ff821415612eba57612eb9612be5565b5b600182019050919050565b7f4d75737420706173732045544820616d6f756e7420677265617465722074686160008201527f6e20657468416d6f756e74000000000000000000000000000000000000000000602082015250565b6000612f21602b83612cba565b9150612f2c82612ec5565b604082019050919050565b60006020820190508181036000830152612f5081612f14565b9050919050565b612f60816129cf565b82525050565b600062ffffff82169050919050565b612f7e81612f66565b82525050565b612f8d81612813565b82525050565b612f9c81612973565b82525050565b61010082016000820151612fb96000850182612f57565b506020820151612fcc6020850182612f57565b506040820151612fdf6040850182612f75565b506060820151612ff26060850182612f57565b5060808201516130056080850182612f84565b5060a082015161301860a0850182612f84565b5060c082015161302b60c0850182612f84565b5060e082015161303e60e0850182612f93565b50505050565b60006101008201905061305a6000830184612fa2565b92915050565b60008151905061306f8161291a565b92915050565b60006020828403121561308b5761308a612847565b5b600061309984828501613060565b91505092915050565b7f4f6e6c7920565246436f6f7264696e61746f722063616e2066756c66696c6c00600082015250565b60006130d8601f83612cba565b91506130e3826130a2565b602082019050919050565b60006020820190508181036000830152613107816130cb565b9050919050565b613117816129cf565b82525050565b61312681612f66565b82525050565b6000819050919050565b6000819050919050565b600061315b6131566131518461312c565b613136565b612973565b9050919050565b61316b81613140565b82525050565b600060a082019050613186600083018861310e565b613193602083018761310e565b6131a0604083018661311d565b6131ad606083018561281d565b6131ba6080830184613162565b9695505050505050565b60006131cf82612813565b91506131da83612813565b9250817fffffffffffffffffffffffffffffffffffffffffffffffffffffffffffffffff048311821515161561321357613212612be5565b5b828202905092915050565b6000602082019050613233600083018461310e565b92915050565b7f4e6f7420656e6f756768204c494e4b20746f2070617920746865206665650000600082015250565b600061326f601e83612cba565b915061327a82613239565b602082019050919050565b6000602082019050818103600083015261329e81613262565b9050919050565b60006040820190506132ba6000830185612b4c565b6132c7602083018461281d565b9392505050565b600081519050919050565b600082825260208201905092915050565b60005b838110156133085780820151818401526020810190506132ed565b83811115613317576000848401525b50505050565b6000601f19601f8301169050919050565b6000613339826132ce565b61334381856132d9565b93506133538185602086016132ea565b61335c8161331d565b840191505092915050565b600060608201905061337c600083018661310e565b613389602083018561281d565b818103604083015261339b818461332e565b9050949350505050565b6133ae81612aa0565b81146133b957600080fd5b50565b6000815190506133cb816133a5565b92915050565b6000602082840312156133e7576133e6612847565b5b60006133f5848285016133bc565b91505092915050565b60006080820190506134136000830187612b4c565b613420602083018661281d565b61342d604083018561310e565b61343a606083018461281d565b95945050505050565b6000819050919050565b61345e61345982612ad6565b613443565b82525050565b6000819050919050565b61347f61347a82612813565b613464565b82525050565b6000613491828561344d565b6020820191506134a1828461346e565b602082019150819050939250505056fea26469706673582212203d6378560dc9609e813e1e9d9690bc4af7945fef52ded9414d9612cb61e18f5c64736f6c634300080a0033",
  "immutableReferences": {
    "935": [
      {
        "length": 32,
        "start": 8969
      },
      {
        "length": 32,
        "start": 9699
      }
    ],
    "937": [
      {
        "length": 32,
        "start": 7200
      },
      {
        "length": 32,
        "start": 9759
      }
    ]
  },
  "source": "// SPDX-License-Identifier: LGPL-3.0-only\npragma solidity ^0.8.10;\npragma abicoder v2;\n\n//import chainlink and uniswap contracts for random number generation\nimport \"@chainlink/contracts/src/v0.8/ChainlinkClient.sol\";\nimport \"@chainlink/contracts/src/v0.8/VRFConsumerBase.sol\";\nimport \"@uniswap/v3-periphery/contracts/interfaces/ISwapRouter.sol\";\nimport \"@uniswap/v3-periphery/contracts/libraries/TransferHelper.sol\";\nimport \"@uniswap/v3-periphery/contracts/interfaces/IQuoter.sol\";\n\ninterface IUniswapRouter is ISwapRouter {\n    function refundETH() external payable;\n}\n\ncontract Lottery is VRFConsumerBase {\n    //Uniswap needed variables\n    IUniswapRouter internal constant uniswapRouter =\n        IUniswapRouter(0xE592427A0AEce92De3Edee1F18E0157C05861564);\n    IQuoter internal constant quoter =\n        IQuoter(0xb27308f9F90D607463bb33eA1BeBb41C27CE5AB6);\n    address private WETH9;\n    address private LINKAddress;\n    uint24 internal uniFee = 3000;\n    uint256 public ethAmount;\n\n    //Chainlink VRF Variables\n    bytes32 internal keyHash;\n    uint256 internal linkFee;\n    uint256 internal randomResult;\n\n    //General use case variables\n    uint256 public costPerLine;\n    mapping(uint256 => uint256[7]) public winningNumbers;\n    uint256 public totalPrizePool;\n    uint8 public correctNumbers;\n    uint256 public dividedPool;\n    uint256 public drawNumber;\n\n    //Stores the address of the Prize pool\n    address payable public poolOwner;\n    mapping(uint256 => mapping(address => bool)) public isAddressEntered;\n    mapping(uint256 => mapping(address => uint8[7])) public pickedNumbers;\n\n    //Winning Addresses Array\n    address payable[] public sevenCorrect;\n    address payable[] public sixCorrect;\n    address payable[] public fiveCorrect;\n    address payable[] public fourCorrect;\n    address payable[] public threeCorrect;\n\n    //Declare Prize Pools\n    uint256 public sevenPool;\n    uint256 public sixPool;\n    uint256 public fivePool;\n    uint256 public fourPool;\n    uint256 public threePool;\n\n    constructor(\n        uint256 _costPerLine,\n        address _vrfCoordinator,\n        bytes32 _keyHash,\n        uint256 _linkFee,\n        address _linkAddress,\n        address _WETH9\n    )\n        public\n        VRFConsumerBase(\n            _vrfCoordinator, // VRF Coordinator address\n            _linkAddress // LINK Token address\n        )\n    {\n        poolOwner = payable(msg.sender);\n        costPerLine = _costPerLine;\n\n        // Start draw Number at 1\n        drawNumber = 1;\n\n        //Set variables\n        keyHash = _keyHash;\n        linkFee = _linkFee;\n        LINKAddress = _linkAddress;\n        WETH9 = _WETH9;\n    }\n\n    //Only Contract Owner can call this modifier\n    modifier restricted() {\n        require(msg.sender == poolOwner);\n        _;\n    }\n\n    //Gets the estimated amount of ETH needed to buy the provided linkFee\n    function getEstimatedETHforLINK()\n        external\n        payable\n        restricted\n        returns (uint256)\n    {\n        return\n            ethAmount = quoter.quoteExactOutputSingle(\n                WETH9,\n                LINKAddress,\n                uniFee,\n                linkFee,\n                0\n            );\n    }\n\n    //Swap ETH to LINK through Uniswap\n    function convertEthToExactLINK() external payable restricted {\n        //Checks that the entered amount of LINK and value of ETH sent is over 0\n        require(\n            msg.value > ethAmount,\n            \"Must pass ETH amount greater than ethAmount\"\n        );\n\n        ISwapRouter.ExactInputSingleParams memory params = ISwapRouter\n            .ExactInputSingleParams({\n                tokenIn: WETH9,\n                tokenOut: LINKAddress,\n                fee: uniFee,\n                recipient: address(this),\n                deadline: block.timestamp + 15,\n                amountIn: msg.value,\n                amountOutMinimum: 0,\n                sqrtPriceLimitX96: 0\n            });\n\n        uniswapRouter.exactInputSingle{value: msg.value}(params);\n    }\n\n    //Takes in 7 chosen numbers and assigns them to the pickedNumbers mapping.\n    function chooseNumbers(\n        uint8 _0,\n        uint8 _1,\n        uint8 _2,\n        uint8 _3,\n        uint8 _4,\n        uint8 _5,\n        uint8 _6\n    ) public payable {\n        // Require chosen numbers to be under 51\n        require(_0 < 51);\n        require(_1 < 51);\n        require(_2 < 51);\n        require(_3 < 51);\n        require(_4 < 51);\n        require(_5 < 51);\n        require(_6 < 51);\n        // Value in ETH must match costPerLine\n        require(msg.value == costPerLine);\n        // Must not already be enetered\n        require(isAddressEntered[drawNumber][msg.sender] == false);\n        isAddressEntered[drawNumber][msg.sender] = true;\n        //transfers money to poolOwner\n        (bool success, ) = poolOwner.call{value: costPerLine}(\"\");\n        require(success, \"Transaction failed.\");\n        totalPrizePool += costPerLine;\n        //Assign selected numbers to mapping\n        pickedNumbers[drawNumber][msg.sender][0] = _0;\n        pickedNumbers[drawNumber][msg.sender][1] = _1;\n        pickedNumbers[drawNumber][msg.sender][2] = _2;\n        pickedNumbers[drawNumber][msg.sender][3] = _3;\n        pickedNumbers[drawNumber][msg.sender][4] = _4;\n        pickedNumbers[drawNumber][msg.sender][5] = _5;\n        pickedNumbers[drawNumber][msg.sender][6] = _6;\n    }\n\n    //Calls Chainlink VRF to start a random Number Request\n    function getRandomNumber() public restricted returns (bytes32 requestId) {\n        require(\n            LINK.balanceOf(address(this)) >= linkFee,\n            \"Not enough LINK to pay the fee\"\n        );\n\n        return requestRandomness(keyHash, linkFee);\n    }\n\n    //Standard Chainlink VRF function to verify the number is random\n    function fulfillRandomness(bytes32 requestId, uint256 randomness)\n        internal\n        override\n    {\n        randomResult = randomness;\n    }\n\n    //Expand the number to 7 numbers under 50 and check for duplicates\n    function expand() public restricted {\n        //subtract the estimated ETH Cost for the LINK from the totalPrizePool\n        totalPrizePool -= ethAmount;\n        for (uint256 x = 0; x < 7; x++) {\n            winningNumbers[drawNumber][x] =\n                (uint256(keccak256(abi.encode(randomResult, x))) % 50) +\n                1;\n            //Checks for Duplicates and gets a new number\n            for (uint8 y = 0; y < 7; y++) {\n                if (\n                    winningNumbers[drawNumber][x] ==\n                    winningNumbers[drawNumber][y]\n                ) {\n                    winningNumbers[drawNumber][x] =\n                        (uint256(\n                            keccak256(\n                                abi.encode(\n                                    randomResult,\n                                    x,\n                                    winningNumbers[drawNumber][x]\n                                )\n                            )\n                        ) % 50) +\n                        1;\n                }\n            }\n        }\n    }\n\n    /* Check Correct Numbers and add up the total correct answers to the\n    correctNumbers variable. Also resets the playerWinningNumbers mapping\n    back to a status of false. */\n    function checkNumbers() public {\n        require(isAddressEntered[drawNumber][msg.sender]);\n\n        //Loop through each arrayAddress in the array\n        for (uint8 x = 0; x < 7; x++) {\n            for (uint8 y = 0; y < 7; y++) {\n                if (\n                    pickedNumbers[drawNumber][msg.sender][x] ==\n                    winningNumbers[drawNumber][y]\n                ) {\n                    correctNumbers++;\n                    // Needed for testing / same number multiple times\n                    break;\n                }\n            }\n        }\n\n        //Add to current prize pool if applicable\n        if (correctNumbers == 7) {\n            //85% of Prize Pool\n            sevenCorrect.push(payable(msg.sender));\n        } else if (correctNumbers == 6) {\n            //4% of Prize Pool\n            sixCorrect.push(payable(msg.sender));\n        } else if (correctNumbers == 5) {\n            //5% of Prize Pool this is correct as there are more winners\n            fiveCorrect.push(payable(msg.sender));\n        } else if (correctNumbers == 4) {\n            //3% of Prize Pool\n            fourCorrect.push(payable(msg.sender));\n        } else if (correctNumbers == 3) {\n            //2% of Prize Pool\n            threeCorrect.push(payable(msg.sender));\n        }\n\n        //Reset correctNumbers\n        correctNumbers = 0;\n    }\n\n    function dividePool() public restricted {\n        /* Divides the prize pool into 100 pieces as decimals are not uint in\n    solidity. Then distribute 88 pieces to say sevenPool as 88% of the prize\n    working the same as doing * 0.88 */\n        dividedPool = (totalPrizePool / 100);\n        //Using += to carry over previous balance is prize not won\n        sevenPool += (dividedPool * 85);\n        sixPool += (dividedPool * 4);\n        fivePool += (dividedPool * 5);\n        fourPool += (dividedPool * 3);\n        threePool += (dividedPool * 2);\n        //Last 1% of dividedPool is used for gas\n    }\n\n    function sevenClaimPrize() public payable restricted {\n        // Require someone has 7 numbers correct and value is sevenPool prize money\n        require(sevenCorrect.length > 0);\n        require(msg.value == sevenPool);\n\n        for (uint256 x = 0; x < sevenCorrect.length; x++) {\n            uint256 prize = sevenPool / sevenCorrect.length;\n            address payable winner = sevenCorrect[x];\n            (bool success, ) = winner.call{value: prize}(\"\");\n            require(success, \"Transaction failed.\");\n        }\n        sevenPool = 0;\n    }\n\n    function sixClaimPrize() public payable restricted {\n        // Require someone has 6 numbers correct and value is sevenPool prize money\n        require(sixCorrect.length > 0);\n        require(msg.value == sixPool);\n\n        for (uint256 x = 0; x < sixCorrect.length; x++) {\n            uint256 prize = sixPool / sixCorrect.length;\n            address payable winner = sixCorrect[x];\n            (bool success, ) = winner.call{value: prize}(\"\");\n            require(success, \"Transaction failed.\");\n        }\n        sixPool = 0;\n    }\n\n    function fiveClaimPrize() public payable restricted {\n        // Require someone has 5 numbers correct and value is sevenPool prize money\n        require(fiveCorrect.length > 0);\n        require(msg.value == fivePool);\n\n        for (uint256 x = 0; x < fiveCorrect.length; x++) {\n            uint256 prize = fivePool / fiveCorrect.length;\n            address payable winner = fiveCorrect[x];\n            (bool success, ) = winner.call{value: prize}(\"\");\n            require(success, \"Transaction failed.\");\n        }\n        fivePool = 0;\n    }\n\n    function fourClaimPrize() public payable restricted {\n        // Require someone has 4 numbers correct and value is sevenPool prize money\n        require(fourCorrect.length > 0);\n        require(msg.value == fourPool);\n\n        for (uint256 x = 0; x < fourCorrect.length; x++) {\n            uint256 prize = fourPool / fourCorrect.length;\n            address payable winner = fourCorrect[x];\n            (bool success, ) = winner.call{value: prize}(\"\");\n            require(success, \"Transaction failed.\");\n        }\n        fourPool = 0;\n    }\n\n    function threeClaimPrize() public payable restricted {\n        // Require someone has 3 numbers correct and value is sevenPool prize money\n        require(threeCorrect.length > 0);\n        require(msg.value == threePool);\n\n        for (uint256 x = 0; x < threeCorrect.length; x++) {\n            uint256 prize = threePool / threeCorrect.length;\n            address payable winner = threeCorrect[x];\n            (bool success, ) = winner.call{value: prize}(\"\");\n            require(success, \"Transaction failed.\");\n        }\n        threePool = 0;\n    }\n\n    // Resets the winners Arrays and adjusts the new totalPrizePool\n    function weeklyReset() public restricted {\n        //Reset variables\n        totalPrizePool = threePool + fourPool + fivePool + sixPool + sevenPool;\n        drawNumber++;\n        delete sevenCorrect;\n        delete sixCorrect;\n        delete fiveCorrect;\n        delete fourCorrect;\n        delete threeCorrect;\n    }\n}\n",
  "sourcePath": "/home/user/Documents/Ethereum-Lottery-Template/src/contracts/Lottery.sol",
  "compiler": {
    "name": "solc",
    "version": "0.8.10+commit.fc410830.Emscripten.clang"
  },
  "schemaVersion": "3.4.1",
  "updatedAt": "2022-04-06T20:50:50.082Z",
  "devdoc": {
    "kind": "dev",
    "methods": {},
    "version": 1
  },
  "userdoc": {
    "kind": "user",
    "methods": {},
    "version": 1
  }
}