{
  "contractName": "Lottery",
  "abi": [
    {
      "inputs": [
        {
          "internalType": "uint256",
          "name": "_costPerLine",
          "type": "uint256"
        }
      ],
      "stateMutability": "nonpayable",
      "type": "constructor"
    },
    {
      "anonymous": false,
      "inputs": [
        {
          "indexed": true,
          "internalType": "address",
          "name": "owner",
          "type": "address"
        },
        {
          "indexed": true,
          "internalType": "address",
          "name": "spender",
          "type": "address"
        },
        {
          "indexed": false,
          "internalType": "uint256",
          "name": "value",
          "type": "uint256"
        }
      ],
      "name": "Approval",
      "type": "event"
    },
    {
      "anonymous": false,
      "inputs": [
        {
          "indexed": true,
          "internalType": "address",
          "name": "from",
          "type": "address"
        },
        {
          "indexed": true,
          "internalType": "address",
          "name": "to",
          "type": "address"
        },
        {
          "indexed": false,
          "internalType": "uint256",
          "name": "value",
          "type": "uint256"
        }
      ],
      "name": "Transfer",
      "type": "event"
    },
    {
      "inputs": [
        {
          "internalType": "address",
          "name": "",
          "type": "address"
        },
        {
          "internalType": "address",
          "name": "",
          "type": "address"
        }
      ],
      "name": "allowance",
      "outputs": [
        {
          "internalType": "uint256",
          "name": "",
          "type": "uint256"
        }
      ],
      "stateMutability": "view",
      "type": "function",
      "constant": true
    },
    {
      "inputs": [
        {
          "internalType": "address",
          "name": "",
          "type": "address"
        }
      ],
      "name": "balanceOf",
      "outputs": [
        {
          "internalType": "uint256",
          "name": "",
          "type": "uint256"
        }
      ],
      "stateMutability": "view",
      "type": "function",
      "constant": true
    },
    {
      "inputs": [],
      "name": "costPerLine",
      "outputs": [
        {
          "internalType": "uint256",
          "name": "",
          "type": "uint256"
        }
      ],
      "stateMutability": "view",
      "type": "function",
      "constant": true
    },
    {
      "inputs": [
        {
          "internalType": "uint256",
          "name": "",
          "type": "uint256"
        }
      ],
      "name": "enteredAddresses",
      "outputs": [
        {
          "internalType": "address",
          "name": "",
          "type": "address"
        }
      ],
      "stateMutability": "view",
      "type": "function",
      "constant": true
    },
    {
      "inputs": [
        {
          "internalType": "address",
          "name": "",
          "type": "address"
        }
      ],
      "name": "isAddressEntered",
      "outputs": [
        {
          "internalType": "bool",
          "name": "",
          "type": "bool"
        }
      ],
      "stateMutability": "view",
      "type": "function",
      "constant": true
    },
    {
      "inputs": [
        {
          "internalType": "address",
          "name": "",
          "type": "address"
        },
        {
          "internalType": "uint256",
          "name": "",
          "type": "uint256"
        }
      ],
      "name": "pickedNumbers",
      "outputs": [
        {
          "internalType": "uint8",
          "name": "",
          "type": "uint8"
        }
      ],
      "stateMutability": "view",
      "type": "function",
      "constant": true
    },
    {
      "inputs": [
        {
          "internalType": "address",
          "name": "",
          "type": "address"
        },
        {
          "internalType": "uint8",
          "name": "",
          "type": "uint8"
        }
      ],
      "name": "playerWinningNumbers",
      "outputs": [
        {
          "internalType": "bool",
          "name": "",
          "type": "bool"
        }
      ],
      "stateMutability": "view",
      "type": "function",
      "constant": true
    },
    {
      "inputs": [],
      "name": "poolOwner",
      "outputs": [
        {
          "internalType": "address",
          "name": "",
          "type": "address"
        }
      ],
      "stateMutability": "view",
      "type": "function",
      "constant": true
    },
    {
      "inputs": [
        {
          "internalType": "uint256",
          "name": "",
          "type": "uint256"
        }
      ],
      "name": "winningNumbers",
      "outputs": [
        {
          "internalType": "uint8",
          "name": "",
          "type": "uint8"
        }
      ],
      "stateMutability": "view",
      "type": "function",
      "constant": true
    },
    {
      "inputs": [],
      "name": "enterLottery",
      "outputs": [],
      "stateMutability": "payable",
      "type": "function",
      "payable": true
    },
    {
      "inputs": [
        {
          "internalType": "address",
          "name": "_spender",
          "type": "address"
        },
        {
          "internalType": "uint256",
          "name": "_value",
          "type": "uint256"
        }
      ],
      "name": "approve",
      "outputs": [
        {
          "internalType": "bool",
          "name": "success",
          "type": "bool"
        }
      ],
      "stateMutability": "nonpayable",
      "type": "function"
    },
    {
      "inputs": [
        {
          "internalType": "address",
          "name": "_to",
          "type": "address"
        },
        {
          "internalType": "uint256",
          "name": "_value",
          "type": "uint256"
        }
      ],
      "name": "transfer",
      "outputs": [
        {
          "internalType": "bool",
          "name": "success",
          "type": "bool"
        }
      ],
      "stateMutability": "nonpayable",
      "type": "function"
    },
    {
      "inputs": [
        {
          "internalType": "uint8",
          "name": "_0",
          "type": "uint8"
        },
        {
          "internalType": "uint8",
          "name": "_1",
          "type": "uint8"
        },
        {
          "internalType": "uint8",
          "name": "_2",
          "type": "uint8"
        },
        {
          "internalType": "uint8",
          "name": "_3",
          "type": "uint8"
        },
        {
          "internalType": "uint8",
          "name": "_4",
          "type": "uint8"
        },
        {
          "internalType": "uint8",
          "name": "_5",
          "type": "uint8"
        },
        {
          "internalType": "uint8",
          "name": "_6",
          "type": "uint8"
        }
      ],
      "name": "chooseNumbers",
      "outputs": [],
      "stateMutability": "payable",
      "type": "function",
      "payable": true
    }
  ],
  "bytecode": "0x608060405234801561001057600080fd5b50604051620011b9380380620011b9833981810160405281019061003491906100bd565b33600260006101000a81548173ffffffffffffffffffffffffffffffffffffffff021916908373ffffffffffffffffffffffffffffffffffffffff16021790555080600081905550506100ea565b600080fd5b6000819050919050565b61009a81610087565b81146100a557600080fd5b50565b6000815190506100b781610091565b92915050565b6000602082840312156100d3576100d2610082565b5b60006100e1848285016100a8565b91505092915050565b6110bf80620000fa6000396000f3fe6080604052600436106100c25760003560e01c8063910dde871161007f578063c07ebc2411610059578063c07ebc24146102b9578063c1af5785146102f6578063cf0b227014610300578063dd62ed3e1461032b576100c2565b8063910dde87146102025780639be72c941461023f578063a9059cbb1461027c576100c2565b80630836e7f0146100c7578063095ea7b3146101045780633d4fcef7146101415780634e45f0951461016c57806356f28166146101a957806370a08231146101c5575b600080fd5b3480156100d357600080fd5b506100ee60048036038101906100e99190610cfb565b610368565b6040516100fb9190610d56565b60405180910390f35b34801561011057600080fd5b5061012b60048036038101906101269190610da7565b610397565b6040516101389190610d56565b60405180910390f35b34801561014d57600080fd5b506101566104c2565b6040516101639190610df6565b60405180910390f35b34801561017857600080fd5b50610193600480360381019061018e9190610e11565b6104c8565b6040516101a09190610e4d565b60405180910390f35b6101c360048036038101906101be9190610e68565b6104f2565b005b3480156101d157600080fd5b506101ec60048036038101906101e79190610f0a565b610820565b6040516101f99190610df6565b60405180910390f35b34801561020e57600080fd5b5061022960048036038101906102249190610e11565b610838565b6040516102369190610f46565b60405180910390f35b34801561024b57600080fd5b5061026660048036038101906102619190610f0a565b610877565b6040516102739190610d56565b60405180910390f35b34801561028857600080fd5b506102a3600480360381019061029e9190610da7565b610897565b6040516102b09190610d56565b60405180910390f35b3480156102c557600080fd5b506102e060048036038101906102db9190610da7565b6108ae565b6040516102ed9190610e4d565b60405180910390f35b6102fe6108e7565b005b34801561030c57600080fd5b5061031561099e565b6040516103229190610f46565b60405180910390f35b34801561033757600080fd5b50610352600480360381019061034d9190610f61565b6109c4565b60405161035f9190610df6565b60405180910390f35b60086020528160005260406000206020528060005260406000206000915091509054906101000a900460ff1681565b60008073ffffffffffffffffffffffffffffffffffffffff168373ffffffffffffffffffffffffffffffffffffffff1614156103d257600080fd5b81600760003373ffffffffffffffffffffffffffffffffffffffff1673ffffffffffffffffffffffffffffffffffffffff16815260200190815260200160002060008573ffffffffffffffffffffffffffffffffffffffff1673ffffffffffffffffffffffffffffffffffffffff168152602001908152602001600020819055508273ffffffffffffffffffffffffffffffffffffffff163373ffffffffffffffffffffffffffffffffffffffff167f8c5be1e5ebec7d5bd14f71427d1e84f3dd0314c0f7b2291e5b200ac8c7c3b925846040516104b09190610df6565b60405180910390a36001905092915050565b60005481565b600181600781106104d857600080fd5b60209182820401919006915054906101000a900460ff1681565b86600660003373ffffffffffffffffffffffffffffffffffffffff1673ffffffffffffffffffffffffffffffffffffffff16815260200190815260200160002060006007811061054557610544610fa1565b5b602091828204019190066101000a81548160ff021916908360ff16021790555085600660003373ffffffffffffffffffffffffffffffffffffffff1673ffffffffffffffffffffffffffffffffffffffff1681526020019081526020016000206001600781106105b8576105b7610fa1565b5b602091828204019190066101000a81548160ff021916908360ff16021790555084600660003373ffffffffffffffffffffffffffffffffffffffff1673ffffffffffffffffffffffffffffffffffffffff16815260200190815260200160002060026007811061062b5761062a610fa1565b5b602091828204019190066101000a81548160ff021916908360ff16021790555083600660003373ffffffffffffffffffffffffffffffffffffffff1673ffffffffffffffffffffffffffffffffffffffff16815260200190815260200160002060036007811061069e5761069d610fa1565b5b602091828204019190066101000a81548160ff021916908360ff16021790555082600660003373ffffffffffffffffffffffffffffffffffffffff1673ffffffffffffffffffffffffffffffffffffffff16815260200190815260200160002060046007811061071157610710610fa1565b5b602091828204019190066101000a81548160ff021916908360ff16021790555081600660003373ffffffffffffffffffffffffffffffffffffffff1673ffffffffffffffffffffffffffffffffffffffff16815260200190815260200160002060056007811061078457610783610fa1565b5b602091828204019190066101000a81548160ff021916908360ff16021790555080600660003373ffffffffffffffffffffffffffffffffffffffff1673ffffffffffffffffffffffffffffffffffffffff1681526020019081526020016000206006600781106107f7576107f6610fa1565b5b602091828204019190066101000a81548160ff021916908360ff16021790555050505050505050565b60046020528060005260406000206000915090505481565b6003818154811061084857600080fd5b906000526020600020016000915054906101000a900473ffffffffffffffffffffffffffffffffffffffff1681565b60056020528060005260406000206000915054906101000a900460ff1681565b60006108a43384846109e9565b6001905092915050565b600660205281600052604060002081600781106108ca57600080fd5b60209182820401919006915091509054906101000a900460ff1681565b60001515600560003373ffffffffffffffffffffffffffffffffffffffff1673ffffffffffffffffffffffffffffffffffffffff16815260200190815260200160002060009054906101000a900460ff1615151461094457600080fd5b6001600560003373ffffffffffffffffffffffffffffffffffffffff1673ffffffffffffffffffffffffffffffffffffffff16815260200190815260200160002060006101000a81548160ff021916908315150217905550565b600260009054906101000a900473ffffffffffffffffffffffffffffffffffffffff1681565b6007602052816000526040600020602052806000526040600020600091509150505481565b600073ffffffffffffffffffffffffffffffffffffffff168273ffffffffffffffffffffffffffffffffffffffff161415610a2357600080fd5b3373ffffffffffffffffffffffffffffffffffffffff1631600460008573ffffffffffffffffffffffffffffffffffffffff1673ffffffffffffffffffffffffffffffffffffffff168152602001908152602001600020819055508173ffffffffffffffffffffffffffffffffffffffff1631600460008473ffffffffffffffffffffffffffffffffffffffff1673ffffffffffffffffffffffffffffffffffffffff1681526020019081526020016000208190555080600460008573ffffffffffffffffffffffffffffffffffffffff1673ffffffffffffffffffffffffffffffffffffffff16815260200190815260200160002054610b249190610fff565b600460008573ffffffffffffffffffffffffffffffffffffffff1673ffffffffffffffffffffffffffffffffffffffff1681526020019081526020016000208190555080600460008473ffffffffffffffffffffffffffffffffffffffff1673ffffffffffffffffffffffffffffffffffffffff16815260200190815260200160002054610bb29190611033565b600460008473ffffffffffffffffffffffffffffffffffffffff1673ffffffffffffffffffffffffffffffffffffffff168152602001908152602001600020819055508173ffffffffffffffffffffffffffffffffffffffff168373ffffffffffffffffffffffffffffffffffffffff167fddf252ad1be2c89b69c2b068fc378daa952ba7f163c4a11628f55a4df523b3ef83604051610c529190610df6565b60405180910390a3505050565b600080fd5b600073ffffffffffffffffffffffffffffffffffffffff82169050919050565b6000610c8f82610c64565b9050919050565b610c9f81610c84565b8114610caa57600080fd5b50565b600081359050610cbc81610c96565b92915050565b600060ff82169050919050565b610cd881610cc2565b8114610ce357600080fd5b50565b600081359050610cf581610ccf565b92915050565b60008060408385031215610d1257610d11610c5f565b5b6000610d2085828601610cad565b9250506020610d3185828601610ce6565b9150509250929050565b60008115159050919050565b610d5081610d3b565b82525050565b6000602082019050610d6b6000830184610d47565b92915050565b6000819050919050565b610d8481610d71565b8114610d8f57600080fd5b50565b600081359050610da181610d7b565b92915050565b60008060408385031215610dbe57610dbd610c5f565b5b6000610dcc85828601610cad565b9250506020610ddd85828601610d92565b9150509250929050565b610df081610d71565b82525050565b6000602082019050610e0b6000830184610de7565b92915050565b600060208284031215610e2757610e26610c5f565b5b6000610e3584828501610d92565b91505092915050565b610e4781610cc2565b82525050565b6000602082019050610e626000830184610e3e565b92915050565b600080600080600080600060e0888a031215610e8757610e86610c5f565b5b6000610e958a828b01610ce6565b9750506020610ea68a828b01610ce6565b9650506040610eb78a828b01610ce6565b9550506060610ec88a828b01610ce6565b9450506080610ed98a828b01610ce6565b93505060a0610eea8a828b01610ce6565b92505060c0610efb8a828b01610ce6565b91505092959891949750929550565b600060208284031215610f2057610f1f610c5f565b5b6000610f2e84828501610cad565b91505092915050565b610f4081610c84565b82525050565b6000602082019050610f5b6000830184610f37565b92915050565b60008060408385031215610f7857610f77610c5f565b5b6000610f8685828601610cad565b9250506020610f9785828601610cad565b9150509250929050565b7f4e487b7100000000000000000000000000000000000000000000000000000000600052603260045260246000fd5b7f4e487b7100000000000000000000000000000000000000000000000000000000600052601160045260246000fd5b600061100a82610d71565b915061101583610d71565b92508282101561102857611027610fd0565b5b828203905092915050565b600061103e82610d71565b915061104983610d71565b9250827fffffffffffffffffffffffffffffffffffffffffffffffffffffffffffffffff0382111561107e5761107d610fd0565b5b82820190509291505056fea2646970667358221220b2445e4eed3cb5f2c050039f5451c6ab631a87eb9d0f0e9146e415e043fb8f9664736f6c634300080a0033",
  "immutableReferences": {},
  "source": "pragma solidity ^0.8.10;\n\ncontract Lottery {\n    uint256 public costPerLine;\n    uint8[7] public winningNumbers;\n    //Stores the address of the Prize pool\n    address public poolOwner;\n    address[] public enteredAddresses;\n    mapping(address => uint256) public balanceOf;\n    mapping(address => bool) public isAddressEntered;\n    mapping(address => uint8[7]) public pickedNumbers;\n    mapping(address => mapping(address => uint256)) public allowance;\n    mapping(address => mapping(uint8 => bool)) public playerWinningNumbers;\n    //variable used for For Loops\n    uint8 index;\n\n    constructor(uint256 _costPerLine) {\n        poolOwner = msg.sender;\n        costPerLine = _costPerLine;\n    }\n\n    function enterLottery() public payable {\n        require(isAddressEntered[msg.sender] == false);\n        isAddressEntered[msg.sender] = true;\n    }\n\n    event Transfer(address indexed from, address indexed to, uint256 value);\n    event Approval(\n        address indexed owner,\n        address indexed spender,\n        uint256 value\n    );\n\n    function approve(address _spender, uint256 _value)\n        public\n        returns (bool success)\n    {\n        require(_spender != address(0));\n        allowance[msg.sender][_spender] = _value;\n        emit Approval(msg.sender, _spender, _value);\n        return true;\n    }\n\n    function transfer(address _to, uint256 _value)\n        public\n        returns (bool success)\n    {\n        _transfer(msg.sender, _to, _value);\n        return true;\n    }\n\n    function _transfer(\n        address _from,\n        address _to,\n        uint256 _value\n    ) internal {\n        require(_to != address(0));\n        balanceOf[_from] = msg.sender.balance;\n        balanceOf[_to] = _to.balance;\n        balanceOf[_from] = balanceOf[_from] - _value;\n        balanceOf[_to] = balanceOf[_to] + _value;\n        emit Transfer(_from, _to, _value);\n    }\n\n    // Takes in 7 chosen numbers and assigns them to the pickedNumbers mapping.\n    //TRY CLEANING UP\n    function chooseNumbers(\n        uint8 _0,\n        uint8 _1,\n        uint8 _2,\n        uint8 _3,\n        uint8 _4,\n        uint8 _5,\n        uint8 _6\n    ) public payable {\n        //Assign selected numbers to mapping\n        pickedNumbers[msg.sender][0] = _0;\n        pickedNumbers[msg.sender][1] = _1;\n        pickedNumbers[msg.sender][2] = _2;\n        pickedNumbers[msg.sender][3] = _3;\n        pickedNumbers[msg.sender][4] = _4;\n        pickedNumbers[msg.sender][5] = _5;\n        pickedNumbers[msg.sender][6] = _6;\n    }\n\n    //NEEDS WORK! UNFINISHED\n    /* function pickWinningNumbers() view {\n        uint8 randomNumber;\n        keccak256(randomNumber);\n    } */\n\n    /* Check Correct Numbers and add up the total correct answers to the\n    correctNumbers variable. Also resets the playerWinningNumbers mapping\n    back to a status of false. */\n    //TRY CLEANING UP\n    /* function checkNumbers() public {\n        //Create a correctNumbers variable to be used to check prize later\n        uint8 correctNumbers;\n        correctNumbers = 0;\n\n        for (index = 0; index < 7; index++) {\n            if (pickedNumbers[msg.sender][index] == winningNumbers[index]) {\n                playerWinningNumbers[msg.sender][index] = true;\n                correctNumbers++;\n            }\n        }\n\n        //Add 1 to current prize pool if applicable\n        if (correctNumbers == 7) {\n            //87.25% of Prize Pool\n        } else if (correctNumbers == 6) {\n            //2.5% of Prize Pool\n        } else if (correctNumbers == 5) {\n            //3.5% of Prize Pool\n        } else if (correctNumbers == 4) {\n            //20 Dollars\n        } else if (correctNumbers == 3) {\n            //FREE TICKET\n        }\n        //Reset isAddressEntered state\n        isAddressEntered = false;\n    } */\n\n    /* function weeklyReset() {\n    } */\n}\n",
  "sourcePath": "/home/dante/Documents/CryptoLottery/contracts/Lottery.sol",
  "compiler": {
    "name": "solc",
    "version": "0.8.10+commit.fc410830.Emscripten.clang"
  },
  "schemaVersion": "3.4.1",
  "updatedAt": "2021-11-23T03:00:47.488Z",
  "networkType": "ethereum",
  "devdoc": {
    "kind": "dev",
    "methods": {},
    "version": 1
  },
  "userdoc": {
    "kind": "user",
    "methods": {},
    "version": 1
  }
}