{
  "contractName": "Lottery",
  "abi": [
    {
      "inputs": [
        {
          "internalType": "uint256",
          "name": "_costPerLine",
          "type": "uint256"
        }
      ],
      "stateMutability": "nonpayable",
      "type": "constructor"
    },
    {
      "inputs": [
        {
          "internalType": "address",
          "name": "",
          "type": "address"
        }
      ],
      "name": "correctNumbers",
      "outputs": [
        {
          "internalType": "uint8",
          "name": "",
          "type": "uint8"
        }
      ],
      "stateMutability": "view",
      "type": "function"
    },
    {
      "inputs": [],
      "name": "costPerLine",
      "outputs": [
        {
          "internalType": "uint256",
          "name": "",
          "type": "uint256"
        }
      ],
      "stateMutability": "view",
      "type": "function"
    },
    {
      "inputs": [
        {
          "internalType": "uint256",
          "name": "",
          "type": "uint256"
        }
      ],
      "name": "fiveCorrect",
      "outputs": [
        {
          "internalType": "address",
          "name": "",
          "type": "address"
        }
      ],
      "stateMutability": "view",
      "type": "function"
    },
    {
      "inputs": [
        {
          "internalType": "uint256",
          "name": "",
          "type": "uint256"
        }
      ],
      "name": "fourCorrect",
      "outputs": [
        {
          "internalType": "address",
          "name": "",
          "type": "address"
        }
      ],
      "stateMutability": "view",
      "type": "function"
    },
    {
      "inputs": [
        {
          "internalType": "address",
          "name": "",
          "type": "address"
        }
      ],
      "name": "isAddressEntered",
      "outputs": [
        {
          "internalType": "bool",
          "name": "",
          "type": "bool"
        }
      ],
      "stateMutability": "view",
      "type": "function"
    },
    {
      "inputs": [
        {
          "internalType": "address",
          "name": "",
          "type": "address"
        },
        {
          "internalType": "uint256",
          "name": "",
          "type": "uint256"
        }
      ],
      "name": "pickedNumbers",
      "outputs": [
        {
          "internalType": "uint8",
          "name": "",
          "type": "uint8"
        }
      ],
      "stateMutability": "view",
      "type": "function"
    },
    {
      "inputs": [],
      "name": "poolOwner",
      "outputs": [
        {
          "internalType": "address payable",
          "name": "",
          "type": "address"
        }
      ],
      "stateMutability": "view",
      "type": "function"
    },
    {
      "inputs": [
        {
          "internalType": "uint256",
          "name": "",
          "type": "uint256"
        }
      ],
      "name": "sevenCorrect",
      "outputs": [
        {
          "internalType": "address",
          "name": "",
          "type": "address"
        }
      ],
      "stateMutability": "view",
      "type": "function"
    },
    {
      "inputs": [
        {
          "internalType": "uint256",
          "name": "",
          "type": "uint256"
        }
      ],
      "name": "sixCorrect",
      "outputs": [
        {
          "internalType": "address",
          "name": "",
          "type": "address"
        }
      ],
      "stateMutability": "view",
      "type": "function"
    },
    {
      "inputs": [
        {
          "internalType": "uint256",
          "name": "",
          "type": "uint256"
        }
      ],
      "name": "threeCorrect",
      "outputs": [
        {
          "internalType": "address",
          "name": "",
          "type": "address"
        }
      ],
      "stateMutability": "view",
      "type": "function"
    },
    {
      "inputs": [
        {
          "internalType": "uint256",
          "name": "",
          "type": "uint256"
        }
      ],
      "name": "winningNumbers",
      "outputs": [
        {
          "internalType": "uint8",
          "name": "",
          "type": "uint8"
        }
      ],
      "stateMutability": "view",
      "type": "function"
    },
    {
      "inputs": [
        {
          "internalType": "uint8",
          "name": "_0",
          "type": "uint8"
        },
        {
          "internalType": "uint8",
          "name": "_1",
          "type": "uint8"
        },
        {
          "internalType": "uint8",
          "name": "_2",
          "type": "uint8"
        },
        {
          "internalType": "uint8",
          "name": "_3",
          "type": "uint8"
        },
        {
          "internalType": "uint8",
          "name": "_4",
          "type": "uint8"
        },
        {
          "internalType": "uint8",
          "name": "_5",
          "type": "uint8"
        },
        {
          "internalType": "uint8",
          "name": "_6",
          "type": "uint8"
        }
      ],
      "name": "chooseNumbers",
      "outputs": [],
      "stateMutability": "payable",
      "type": "function"
    },
    {
      "inputs": [],
      "name": "pickWinningNumbers",
      "outputs": [],
      "stateMutability": "nonpayable",
      "type": "function"
    },
    {
      "inputs": [],
      "name": "checkNumbers",
      "outputs": [],
      "stateMutability": "nonpayable",
      "type": "function"
    }
  ],
  "bytecode": "0x60806040523480156200001157600080fd5b5060405162001615380380620016158339818101604052810190620000379190620000c6565b33600260006101000a81548173ffffffffffffffffffffffffffffffffffffffff021916908373ffffffffffffffffffffffffffffffffffffffff1602179055508060008190555050620000f8565b600080fd5b6000819050919050565b620000a0816200008b565b8114620000ac57600080fd5b50565b600081519050620000c08162000095565b92915050565b600060208284031215620000df57620000de62000086565b5b6000620000ef84828501620000af565b91505092915050565b61150d80620001086000396000f3fe6080604052600436106100dd5760003560e01c806385ea32971161007f5780639be72c94116100595780639be72c94146102c5578063b1c3c16414610302578063c07ebc241461033f578063cf0b22701461037c576100dd565b806385ea32971461020e57806386451e9b1461024b57806394ff458f14610288576100dd565b80634f460894116100bb5780634f4608941461016157806356f28166146101785780636139be54146101945780637a8a6289146101d1576100dd565b806308f672ac146100e25780633d4fcef7146100f95780634e45f09514610124575b600080fd5b3480156100ee57600080fd5b506100f76103a7565b005b34801561010557600080fd5b5061010e610528565b60405161011b919061116a565b60405180910390f35b34801561013057600080fd5b5061014b600480360381019061014691906111b6565b61052e565b60405161015891906111ff565b60405180910390f35b34801561016d57600080fd5b50610176610558565b005b610192600480360381019061018d9190611246565b610b1b565b005b3480156101a057600080fd5b506101bb60048036038101906101b691906111b6565b610f77565b6040516101c89190611329565b60405180910390f35b3480156101dd57600080fd5b506101f860048036038101906101f39190611370565b610fb6565b60405161020591906111ff565b60405180910390f35b34801561021a57600080fd5b50610235600480360381019061023091906111b6565b610fd6565b6040516102429190611329565b60405180910390f35b34801561025757600080fd5b50610272600480360381019061026d91906111b6565b611015565b60405161027f9190611329565b60405180910390f35b34801561029457600080fd5b506102af60048036038101906102aa91906111b6565b611054565b6040516102bc9190611329565b60405180910390f35b3480156102d157600080fd5b506102ec60048036038101906102e79190611370565b611093565b6040516102f991906113b8565b60405180910390f35b34801561030e57600080fd5b50610329600480360381019061032491906111b6565b6110b3565b6040516103369190611329565b60405180910390f35b34801561034b57600080fd5b50610366600480360381019061036191906113d3565b6110f2565b60405161037391906111ff565b60405180910390f35b34801561038857600080fd5b5061039161112b565b60405161039e9190611434565b60405180910390f35b6001806000600781106103bd576103bc61144f565b5b602091828204019190066101000a81548160ff021916908360ff1602179055506002600180600781106103f3576103f261144f565b5b602091828204019190066101000a81548160ff021916908360ff1602179055506003600160026007811061042a5761042961144f565b5b602091828204019190066101000a81548160ff021916908360ff160217905550600460016003600781106104615761046061144f565b5b602091828204019190066101000a81548160ff021916908360ff160217905550600560016004600781106104985761049761144f565b5b602091828204019190066101000a81548160ff021916908360ff160217905550600660016005600781106104cf576104ce61144f565b5b602091828204019190066101000a81548160ff021916908360ff160217905550600760016006600781106105065761050561144f565b5b602091828204019190066101000a81548160ff021916908360ff160217905550565b60005481565b6001816007811061053e57600080fd5b60209182820401919006915054906101000a900460ff1681565b600360003373ffffffffffffffffffffffffffffffffffffffff1673ffffffffffffffffffffffffffffffffffffffff16815260200190815260200160002060009054906101000a900460ff166105ae57600080fd5b6000600b60006101000a81548160ff021916908360ff1602179055505b6007600b60009054906101000a900460ff1660ff16101561075a576001600b60009054906101000a900460ff1660ff166007811061060c5761060b61144f565b5b602091828204019190069054906101000a900460ff1660ff16600460003373ffffffffffffffffffffffffffffffffffffffff1673ffffffffffffffffffffffffffffffffffffffff168152602001908152602001600020600b60009054906101000a900460ff1660ff16600781106106885761068761144f565b5b602091828204019190069054906101000a900460ff1660ff16141561071d57600560003373ffffffffffffffffffffffffffffffffffffffff1673ffffffffffffffffffffffffffffffffffffffff168152602001908152602001600020600081819054906101000a900460ff1680929190610703906114ad565b91906101000a81548160ff021916908360ff160217905550505b600b600081819054906101000a900460ff168092919061073c906114ad565b91906101000a81548160ff021916908360ff160217905550506105cb565b6007600560003373ffffffffffffffffffffffffffffffffffffffff1673ffffffffffffffffffffffffffffffffffffffff16815260200190815260200160002060009054906101000a900460ff1660ff16141561081a576006339080600181540180825580915050600190039060005260206000200160009091909190916101000a81548173ffffffffffffffffffffffffffffffffffffffff021916908373ffffffffffffffffffffffffffffffffffffffff160217905550610b19565b6006600560003373ffffffffffffffffffffffffffffffffffffffff1673ffffffffffffffffffffffffffffffffffffffff16815260200190815260200160002060009054906101000a900460ff1660ff1614156108da576007339080600181540180825580915050600190039060005260206000200160009091909190916101000a81548173ffffffffffffffffffffffffffffffffffffffff021916908373ffffffffffffffffffffffffffffffffffffffff160217905550610b18565b60058060003373ffffffffffffffffffffffffffffffffffffffff1673ffffffffffffffffffffffffffffffffffffffff16815260200190815260200160002060009054906101000a900460ff1660ff161415610999576008339080600181540180825580915050600190039060005260206000200160009091909190916101000a81548173ffffffffffffffffffffffffffffffffffffffff021916908373ffffffffffffffffffffffffffffffffffffffff160217905550610b17565b6004600560003373ffffffffffffffffffffffffffffffffffffffff1673ffffffffffffffffffffffffffffffffffffffff16815260200190815260200160002060009054906101000a900460ff1660ff161415610a59576009339080600181540180825580915050600190039060005260206000200160009091909190916101000a81548173ffffffffffffffffffffffffffffffffffffffff021916908373ffffffffffffffffffffffffffffffffffffffff160217905550610b16565b6003600560003373ffffffffffffffffffffffffffffffffffffffff1673ffffffffffffffffffffffffffffffffffffffff16815260200190815260200160002060009054906101000a900460ff1660ff161415610b1557600a339080600181540180825580915050600190039060005260206000200160009091909190916101000a81548173ffffffffffffffffffffffffffffffffffffffff021916908373ffffffffffffffffffffffffffffffffffffffff1602179055505b5b5b5b5b565b6000543414610b2957600080fd5b60001515600360003373ffffffffffffffffffffffffffffffffffffffff1673ffffffffffffffffffffffffffffffffffffffff16815260200190815260200160002060009054906101000a900460ff16151514610b8657600080fd5b6001600360003373ffffffffffffffffffffffffffffffffffffffff1673ffffffffffffffffffffffffffffffffffffffff16815260200190815260200160002060006101000a81548160ff021916908315150217905550600260009054906101000a900473ffffffffffffffffffffffffffffffffffffffff1673ffffffffffffffffffffffffffffffffffffffff166108fc6000549081150290604051600060405180830381858888f19350505050158015610c48573d6000803e3d6000fd5b5086600460003373ffffffffffffffffffffffffffffffffffffffff1673ffffffffffffffffffffffffffffffffffffffff168152602001908152602001600020600060078110610c9c57610c9b61144f565b5b602091828204019190066101000a81548160ff021916908360ff16021790555085600460003373ffffffffffffffffffffffffffffffffffffffff1673ffffffffffffffffffffffffffffffffffffffff168152602001908152602001600020600160078110610d0f57610d0e61144f565b5b602091828204019190066101000a81548160ff021916908360ff16021790555084600460003373ffffffffffffffffffffffffffffffffffffffff1673ffffffffffffffffffffffffffffffffffffffff168152602001908152602001600020600260078110610d8257610d8161144f565b5b602091828204019190066101000a81548160ff021916908360ff16021790555083600460003373ffffffffffffffffffffffffffffffffffffffff1673ffffffffffffffffffffffffffffffffffffffff168152602001908152602001600020600360078110610df557610df461144f565b5b602091828204019190066101000a81548160ff021916908360ff16021790555082600460003373ffffffffffffffffffffffffffffffffffffffff1673ffffffffffffffffffffffffffffffffffffffff168152602001908152602001600020600460078110610e6857610e6761144f565b5b602091828204019190066101000a81548160ff021916908360ff16021790555081600460003373ffffffffffffffffffffffffffffffffffffffff1673ffffffffffffffffffffffffffffffffffffffff168152602001908152602001600020600560078110610edb57610eda61144f565b5b602091828204019190066101000a81548160ff021916908360ff16021790555080600460003373ffffffffffffffffffffffffffffffffffffffff1673ffffffffffffffffffffffffffffffffffffffff168152602001908152602001600020600660078110610f4e57610f4d61144f565b5b602091828204019190066101000a81548160ff021916908360ff16021790555050505050505050565b60078181548110610f8757600080fd5b906000526020600020016000915054906101000a900473ffffffffffffffffffffffffffffffffffffffff1681565b60056020528060005260406000206000915054906101000a900460ff1681565b60098181548110610fe657600080fd5b906000526020600020016000915054906101000a900473ffffffffffffffffffffffffffffffffffffffff1681565b600a818154811061102557600080fd5b906000526020600020016000915054906101000a900473ffffffffffffffffffffffffffffffffffffffff1681565b6006818154811061106457600080fd5b906000526020600020016000915054906101000a900473ffffffffffffffffffffffffffffffffffffffff1681565b60036020528060005260406000206000915054906101000a900460ff1681565b600881815481106110c357600080fd5b906000526020600020016000915054906101000a900473ffffffffffffffffffffffffffffffffffffffff1681565b6004602052816000526040600020816007811061110e57600080fd5b60209182820401919006915091509054906101000a900460ff1681565b600260009054906101000a900473ffffffffffffffffffffffffffffffffffffffff1681565b6000819050919050565b61116481611151565b82525050565b600060208201905061117f600083018461115b565b92915050565b600080fd5b61119381611151565b811461119e57600080fd5b50565b6000813590506111b08161118a565b92915050565b6000602082840312156111cc576111cb611185565b5b60006111da848285016111a1565b91505092915050565b600060ff82169050919050565b6111f9816111e3565b82525050565b600060208201905061121460008301846111f0565b92915050565b611223816111e3565b811461122e57600080fd5b50565b6000813590506112408161121a565b92915050565b600080600080600080600060e0888a03121561126557611264611185565b5b60006112738a828b01611231565b97505060206112848a828b01611231565b96505060406112958a828b01611231565b95505060606112a68a828b01611231565b94505060806112b78a828b01611231565b93505060a06112c88a828b01611231565b92505060c06112d98a828b01611231565b91505092959891949750929550565b600073ffffffffffffffffffffffffffffffffffffffff82169050919050565b6000611313826112e8565b9050919050565b61132381611308565b82525050565b600060208201905061133e600083018461131a565b92915050565b61134d81611308565b811461135857600080fd5b50565b60008135905061136a81611344565b92915050565b60006020828403121561138657611385611185565b5b60006113948482850161135b565b91505092915050565b60008115159050919050565b6113b28161139d565b82525050565b60006020820190506113cd60008301846113a9565b92915050565b600080604083850312156113ea576113e9611185565b5b60006113f88582860161135b565b9250506020611409858286016111a1565b9150509250929050565b600061141e826112e8565b9050919050565b61142e81611413565b82525050565b60006020820190506114496000830184611425565b92915050565b7f4e487b7100000000000000000000000000000000000000000000000000000000600052603260045260246000fd5b7f4e487b7100000000000000000000000000000000000000000000000000000000600052601160045260246000fd5b60006114b8826111e3565b915060ff8214156114cc576114cb61147e565b5b60018201905091905056fea2646970667358221220f778051a1aaa80ed86e8ecdec1057dc458b657835828fc5a3c0d5a9bb8dff0ba64736f6c634300080a0033",
  "immutableReferences": {},
  "source": "pragma solidity ^0.8.10;\n\ncontract Lottery {\n    uint256 public costPerLine;\n    uint8[7] public winningNumbers;\n    //Stores the address of the Prize pool\n    address payable public poolOwner;\n    mapping(address => bool) public isAddressEntered;\n    mapping(address => uint8[7]) public pickedNumbers;\n    mapping(address => uint8) public correctNumbers;\n\n    //Winning Addresses Array\n    address[] public sevenCorrect;\n    address[] public sixCorrect;\n    address[] public fiveCorrect;\n    address[] public fourCorrect;\n    address[] public threeCorrect;\n\n    //variable used for For Loops\n    uint8 x;\n\n    constructor(uint256 _costPerLine) {\n        poolOwner = payable(msg.sender);\n        costPerLine = _costPerLine;\n    }\n\n    //Takes in 7 chosen numbers and assigns them to the pickedNumbers mapping.\n    //TRY CLEANING UP\n    function chooseNumbers(\n        uint8 _0,\n        uint8 _1,\n        uint8 _2,\n        uint8 _3,\n        uint8 _4,\n        uint8 _5,\n        uint8 _6\n    ) public payable {\n        require(msg.value == costPerLine);\n        require(isAddressEntered[msg.sender] == false);\n        isAddressEntered[msg.sender] = true;\n        poolOwner.transfer(costPerLine);\n        //Assign selected numbers to mapping\n        pickedNumbers[msg.sender][0] = _0;\n        pickedNumbers[msg.sender][1] = _1;\n        pickedNumbers[msg.sender][2] = _2;\n        pickedNumbers[msg.sender][3] = _3;\n        pickedNumbers[msg.sender][4] = _4;\n        pickedNumbers[msg.sender][5] = _5;\n        pickedNumbers[msg.sender][6] = _6;\n    }\n\n    //NEEDS WORK! UNFINISHED\n    function pickWinningNumbers() public {\n        //Temporarily set winningNumbers to 1 through 7 for testing\n        winningNumbers[0] = 1;\n        winningNumbers[1] = 2;\n        winningNumbers[2] = 3;\n        winningNumbers[3] = 4;\n        winningNumbers[4] = 5;\n        winningNumbers[5] = 6;\n        winningNumbers[6] = 7;\n    }\n\n    /* Check Correct Numbers and add up the total correct answers to the\n    correctNumbers variable. Also resets the playerWinningNumbers mapping\n    back to a status of false. */\n    function checkNumbers() public {\n        require(isAddressEntered[msg.sender]);\n        //Create a correctNumbers mapping to be used to check prize later\n\n        //Loop through each arrayAddress in the array\n        for (x = 0; x < 7; x++) {\n            if (pickedNumbers[msg.sender][x] == winningNumbers[x]) {\n                correctNumbers[msg.sender]++;\n            }\n        }\n\n        //Add 1 to current prize pool if applicable\n        if (correctNumbers[msg.sender] == 7) {\n            //87.25% of Prize Pool\n            sevenCorrect.push(msg.sender);\n        } else if (correctNumbers[msg.sender] == 6) {\n            //2.5% of Prize Pool\n            sixCorrect.push(msg.sender);\n        } else if (correctNumbers[msg.sender] == 5) {\n            //3.5% of Prize Pool\n            fiveCorrect.push(msg.sender);\n        } else if (correctNumbers[msg.sender] == 4) {\n            //20 Dollars\n            fourCorrect.push(msg.sender);\n        } else if (correctNumbers[msg.sender] == 3) {\n            //FREE TICKET\n            threeCorrect.push(msg.sender);\n        }\n        //Reset isAddressEntered state\n    }\n\n    /* function weeklyReset() {\n    } */\n}\n",
  "sourcePath": "/home/dante/Documents/CryptoLottery/contracts/Lottery.sol",
  "compiler": {
    "name": "solc",
    "version": "0.8.10+commit.fc410830.Emscripten.clang"
  },
  "schemaVersion": "3.4.1",
  "updatedAt": "2021-11-24T21:42:57.271Z",
  "devdoc": {
    "kind": "dev",
    "methods": {},
    "version": 1
  },
  "userdoc": {
    "kind": "user",
    "methods": {},
    "version": 1
  }
}